{
  "transactions": [
    {
      "hash": "0x7eee3514e2a07a2bdea69fb962dfd87eded1d771bf7c58c8f664f849b4bc2f3a",
      "transactionType": "CREATE",
      "contractName": "FlashMintExecutor",
      "contractAddress": "0x848f19df5ee44afcb92a519370223b835da2120d",
      "function": null,
      "arguments": [
        "0x1bd1aAdc9E230626C44a139d7E70d842749351eb",
        "0x37e6365d4f6aE378467b0e24c9065Ce5f06D70bF"
      ],
      "transaction": {
        "from": "0x37e6365d4f6ae378467b0e24c9065ce5f06d70bf",
        "gas": "0x24aa87",
        "value": "0x0",
        "input": "0x60a060405234801561000f575f80fd5b5060405161219e38038061219e833981810160405281019061003191906101a0565b80805f806101000a81548173ffffffffffffffffffffffffffffffffffffffff021916908373ffffffffffffffffffffffffffffffffffffffff1602179055508073ffffffffffffffffffffffffffffffffffffffff165f73ffffffffffffffffffffffffffffffffffffffff167f8be0079c531659141344cd1fd0a4f28419497f9722a3daafe3b4186f6b6457e060405160405180910390a3508173ffffffffffffffffffffffffffffffffffffffff1660808173ffffffffffffffffffffffffffffffffffffffff168152505050506101de565b5f80fd5b5f73ffffffffffffffffffffffffffffffffffffffff82169050919050565b5f6101348261010b565b9050919050565b5f6101458261012a565b9050919050565b6101558161013b565b811461015f575f80fd5b50565b5f815190506101708161014c565b92915050565b61017f8161012a565b8114610189575f80fd5b50565b5f8151905061019a81610176565b92915050565b5f80604083850312156101b6576101b5610107565b5b5f6101c385828601610162565b92505060206101d48582860161018c565b9150509250929050565b608051611f856102195f395f81816105a20152818161064d0152818161067301528181610dbd01528181610de10152610e700152611f855ff3fe608060405234801561000f575f80fd5b506004361061009c575f3560e01c80639e281a98116100645780639e281a9814610142578063ab5726501461015e578063d0f2d8ac1461017c578063e5135ec614610198578063f2fde38b146101b45761009c565b80632485230e146100a0578063294ed890146100bc578063585da628146100d85780638da5cb5b146100f45780639a9af6ba14610112575b5f80fd5b6100ba60048036038101906100b5919061113e565b6101d0565b005b6100d660048036038101906100d1919061113e565b610426565b005b6100f260048036038101906100ed9190611232565b6105a0565b005b6100fc610c61565b60405161010991906112bf565b60405180910390f35b61012c6004803603810190610127919061113e565b610c84565b60405161013991906112f2565b60405180910390f35b61015c60048036038101906101579190611379565b610cae565b005b610166610dbb565b6040516101739190611412565b60405180910390f35b6101966004803603810190610191919061144d565b610ddf565b005b6101b260048036038101906101ad919061151b565b610e6e565b005b6101ce60048036038101906101c99190611599565b610f00565b005b5f8054906101000a900473ffffffffffffffffffffffffffffffffffffffff1673ffffffffffffffffffffffffffffffffffffffff163373ffffffffffffffffffffffffffffffffffffffff161461025d576040517f08c379a00000000000000000000000000000000000000000000000000000000081526004016102549061161e565b60405180910390fd5b5f73ffffffffffffffffffffffffffffffffffffffff168273ffffffffffffffffffffffffffffffffffffffff16036102cb576040517f08c379a00000000000000000000000000000000000000000000000000000000081526004016102c290611686565b60405180910390fd5b5f73ffffffffffffffffffffffffffffffffffffffff168173ffffffffffffffffffffffffffffffffffffffff1603610339576040517f08c379a0000000000000000000000000000000000000000000000000000000008152600401610330906116ee565b60405180910390fd5b6001805f8473ffffffffffffffffffffffffffffffffffffffff1673ffffffffffffffffffffffffffffffffffffffff1681526020019081526020015f205f8373ffffffffffffffffffffffffffffffffffffffff1673ffffffffffffffffffffffffffffffffffffffff1681526020019081526020015f205f6101000a81548160ff0219169083151502179055508073ffffffffffffffffffffffffffffffffffffffff168273ffffffffffffffffffffffffffffffffffffffff167f2031fcbff568a98faa2b2e25a63a696590b0a898afb1e499076752eddfe47a1f60405160405180910390a35050565b5f8054906101000a900473ffffffffffffffffffffffffffffffffffffffff1673ffffffffffffffffffffffffffffffffffffffff163373ffffffffffffffffffffffffffffffffffffffff16146104b3576040517f08c379a00000000000000000000000000000000000000000000000000000000081526004016104aa9061161e565b60405180910390fd5b5f60015f8473ffffffffffffffffffffffffffffffffffffffff1673ffffffffffffffffffffffffffffffffffffffff1681526020019081526020015f205f8373ffffffffffffffffffffffffffffffffffffffff1673ffffffffffffffffffffffffffffffffffffffff1681526020019081526020015f205f6101000a81548160ff0219169083151502179055508073ffffffffffffffffffffffffffffffffffffffff168273ffffffffffffffffffffffffffffffffffffffff167fe30b8e714e7d525e827f06ac461c669578ac67e7475bc025a3c816ff2f465db360405160405180910390a35050565b7f000000000000000000000000000000000000000000000000000000000000000073ffffffffffffffffffffffffffffffffffffffff163373ffffffffffffffffffffffffffffffffffffffff1614610625576040517f933fe52f00000000000000000000000000000000000000000000000000000000815260040160405180910390fd5b5f805f805f868681019061063991906118a9565b945094509450945094505f808361067157857f0000000000000000000000000000000000000000000000000000000000000000610694565b7f0000000000000000000000000000000000000000000000000000000000000000865b915091506106e3827fffffffffffffffffffffffffffffffffffffffffffffffffffffffffffffffff8973ffffffffffffffffffffffffffffffffffffffff166110299092919063ffffffff16565b61072e817fffffffffffffffffffffffffffffffffffffffffffffffffffffffffffffffff8773ffffffffffffffffffffffffffffffffffffffff166110299092919063ffffffff16565b60015f8873ffffffffffffffffffffffffffffffffffffffff1673ffffffffffffffffffffffffffffffffffffffff1681526020019081526020015f205f8773ffffffffffffffffffffffffffffffffffffffff1673ffffffffffffffffffffffffffffffffffffffff1681526020019081526020015f205f9054906101000a900460ff166107f2576040517f08c379a00000000000000000000000000000000000000000000000000000000081526004016107e9906119ac565b60405180910390fd5b8315610a28575f8773ffffffffffffffffffffffffffffffffffffffff166370a08231306040518263ffffffff1660e01b815260040161083291906112bf565b602060405180830381865afa15801561084d573d5f803e3d5ffd5b505050506040513d601f19601f8201168201806040525081019061087191906119de565b90505f808873ffffffffffffffffffffffffffffffffffffffff168660405161089a9190611a5b565b5f604051808303815f865af19150503d805f81146108d3576040519150601f19603f3d011682016040523d82523d5f602084013e6108d8565b606091505b50915091508161091d576040517f08c379a000000000000000000000000000000000000000000000000000000000815260040161091490611abb565b60405180910390fd5b5f838b73ffffffffffffffffffffffffffffffffffffffff166370a08231306040518263ffffffff1660e01b815260040161095891906112bf565b602060405180830381865afa158015610973573d5f803e3d5ffd5b505050506040513d601f19601f8201168201806040525081019061099791906119de565b6109a19190611b06565b90508a73ffffffffffffffffffffffffffffffffffffffff1663095ea7b333836040518363ffffffff1660e01b81526004016109de929190611b48565b6020604051808303815f875af11580156109fa573d5f803e3d5ffd5b505050506040513d601f19601f82011682018060405250810190610a1e9190611b83565b5050505050610c54565b5f8573ffffffffffffffffffffffffffffffffffffffff166370a08231306040518263ffffffff1660e01b8152600401610a6291906112bf565b602060405180830381865afa158015610a7d573d5f803e3d5ffd5b505050506040513d601f19601f82011682018060405250810190610aa191906119de565b90505f808873ffffffffffffffffffffffffffffffffffffffff1686604051610aca9190611a5b565b5f604051808303815f865af19150503d805f8114610b03576040519150601f19603f3d011682016040523d82523d5f602084013e610b08565b606091505b509150915081610b4d576040517f08c379a0000000000000000000000000000000000000000000000000000000008152600401610b4490611bf8565b60405180910390fd5b5f838973ffffffffffffffffffffffffffffffffffffffff166370a08231306040518263ffffffff1660e01b8152600401610b8891906112bf565b602060405180830381865afa158015610ba3573d5f803e3d5ffd5b505050506040513d601f19601f82011682018060405250810190610bc791906119de565b610bd19190611b06565b90508873ffffffffffffffffffffffffffffffffffffffff1663095ea7b333836040518363ffffffff1660e01b8152600401610c0e929190611b48565b6020604051808303815f875af1158015610c2a573d5f803e3d5ffd5b505050506040513d601f19601f82011682018060405250810190610c4e9190611b83565b50505050505b5050505050505050505050565b5f8054906101000a900473ffffffffffffffffffffffffffffffffffffffff1681565b6001602052815f5260405f20602052805f5260405f205f915091509054906101000a900460ff1681565b5f8054906101000a900473ffffffffffffffffffffffffffffffffffffffff1673ffffffffffffffffffffffffffffffffffffffff163373ffffffffffffffffffffffffffffffffffffffff1614610d3b576040517f08c379a0000000000000000000000000000000000000000000000000000000008152600401610d329061161e565b60405180910390fd5b8173ffffffffffffffffffffffffffffffffffffffff1663a9059cbb33836040518363ffffffff1660e01b8152600401610d76929190611b48565b6020604051808303815f875af1158015610d92573d5f803e3d5ffd5b505050506040513d601f19601f82011682018060405250810190610db69190611b83565b505050565b7f000000000000000000000000000000000000000000000000000000000000000081565b7f000000000000000000000000000000000000000000000000000000000000000073ffffffffffffffffffffffffffffffffffffffff16630d3358848484846040518463ffffffff1660e01b8152600401610e3c93929190611d51565b5f604051808303815f87803b158015610e53575f80fd5b505af1158015610e65573d5f803e3d5ffd5b50505050505050565b7f000000000000000000000000000000000000000000000000000000000000000073ffffffffffffffffffffffffffffffffffffffff166313fb72c7858585856040518563ffffffff1660e01b8152600401610ecd9493929190611eae565b5f604051808303815f87803b158015610ee4575f80fd5b505af1158015610ef6573d5f803e3d5ffd5b5050505050505050565b5f8054906101000a900473ffffffffffffffffffffffffffffffffffffffff1673ffffffffffffffffffffffffffffffffffffffff163373ffffffffffffffffffffffffffffffffffffffff1614610f8d576040517f08c379a0000000000000000000000000000000000000000000000000000000008152600401610f849061161e565b60405180910390fd5b805f806101000a81548173ffffffffffffffffffffffffffffffffffffffff021916908373ffffffffffffffffffffffffffffffffffffffff1602179055508073ffffffffffffffffffffffffffffffffffffffff163373ffffffffffffffffffffffffffffffffffffffff167f8be0079c531659141344cd1fd0a4f28419497f9722a3daafe3b4186f6b6457e060405160405180910390a350565b5f6040517f095ea7b300000000000000000000000000000000000000000000000000000000815273ffffffffffffffffffffffffffffffffffffffff8416600482015282602482015260205f6044835f895af13d15601f3d1160015f5114161716915050806110cd576040517f08c379a00000000000000000000000000000000000000000000000000000000081526004016110c490611f31565b60405180910390fd5b50505050565b5f604051905090565b5f80fd5b5f80fd5b5f73ffffffffffffffffffffffffffffffffffffffff82169050919050565b5f61110d826110e4565b9050919050565b61111d81611103565b8114611127575f80fd5b50565b5f8135905061113881611114565b92915050565b5f8060408385031215611154576111536110dc565b5b5f6111618582860161112a565b92505060206111728582860161112a565b9150509250929050565b5f80fd5b5f80fd5b5f80fd5b5f8083601f84011261119d5761119c61117c565b5b8235905067ffffffffffffffff8111156111ba576111b9611180565b5b6020830191508360208202830111156111d6576111d5611184565b5b9250929050565b5f8083601f8401126111f2576111f161117c565b5b8235905067ffffffffffffffff81111561120f5761120e611180565b5b60208301915083600182028301111561122b5761122a611184565b5b9250929050565b5f805f806040858703121561124a576112496110dc565b5b5f85013567ffffffffffffffff811115611267576112666110e0565b5b61127387828801611188565b9450945050602085013567ffffffffffffffff811115611296576112956110e0565b5b6112a2878288016111dd565b925092505092959194509250565b6112b981611103565b82525050565b5f6020820190506112d25f8301846112b0565b92915050565b5f8115159050919050565b6112ec816112d8565b82525050565b5f6020820190506113055f8301846112e3565b92915050565b5f61131582611103565b9050919050565b6113258161130b565b811461132f575f80fd5b50565b5f813590506113408161131c565b92915050565b5f819050919050565b61135881611346565b8114611362575f80fd5b50565b5f813590506113738161134f565b92915050565b5f806040838503121561138f5761138e6110dc565b5b5f61139c85828601611332565b92505060206113ad85828601611365565b9150509250929050565b5f819050919050565b5f6113da6113d56113d0846110e4565b6113b7565b6110e4565b9050919050565b5f6113eb826113c0565b9050919050565b5f6113fc826113e1565b9050919050565b61140c816113f2565b82525050565b5f6020820190506114255f830184611403565b92915050565b5f80fd5b5f604082840312156114445761144361142b565b5b81905092915050565b5f805f60408486031215611464576114636110dc565b5b5f84013567ffffffffffffffff811115611481576114806110e0565b5b61148d8682870161142f565b935050602084013567ffffffffffffffff8111156114ae576114ad6110e0565b5b6114ba868287016111dd565b92509250509250925092565b5f8083601f8401126114db576114da61117c565b5b8235905067ffffffffffffffff8111156114f8576114f7611180565b5b60208301915083602082028301111561151457611513611184565b5b9250929050565b5f805f8060408587031215611533576115326110dc565b5b5f85013567ffffffffffffffff8111156115505761154f6110e0565b5b61155c878288016114c6565b9450945050602085013567ffffffffffffffff81111561157f5761157e6110e0565b5b61158b878288016111dd565b925092505092959194509250565b5f602082840312156115ae576115ad6110dc565b5b5f6115bb8482850161112a565b91505092915050565b5f82825260208201905092915050565b7f554e415554484f52495a454400000000000000000000000000000000000000005f82015250565b5f611608600c836115c4565b9150611613826115d4565b602082019050919050565b5f6020820190508181035f830152611635816115fc565b9050919050565b7f496e76616c696420746f6b656e000000000000000000000000000000000000005f82015250565b5f611670600d836115c4565b915061167b8261163c565b602082019050919050565b5f6020820190508181035f83015261169d81611664565b9050919050565b7f496e76616c696420466c6173684d696e7420636f6e74726163740000000000005f82015250565b5f6116d8601a836115c4565b91506116e3826116a4565b602082019050919050565b5f6020820190508181035f830152611705816116cc565b9050919050565b5f611716826110e4565b9050919050565b6117268161170c565b8114611730575f80fd5b50565b5f813590506117418161171d565b92915050565b611750816112d8565b811461175a575f80fd5b50565b5f8135905061176b81611747565b92915050565b5f80fd5b5f601f19601f8301169050919050565b7f4e487b71000000000000000000000000000000000000000000000000000000005f52604160045260245ffd5b6117bb82611775565b810181811067ffffffffffffffff821117156117da576117d9611785565b5b80604052505050565b5f6117ec6110d3565b90506117f882826117b2565b919050565b5f67ffffffffffffffff82111561181757611816611785565b5b61182082611775565b9050602081019050919050565b828183375f83830152505050565b5f61184d611848846117fd565b6117e3565b90508281526020810184848401111561186957611868611771565b5b61187484828561182d565b509392505050565b5f82601f8301126118905761188f61117c565b5b81356118a084826020860161183b565b91505092915050565b5f805f805f60a086880312156118c2576118c16110dc565b5b5f6118cf88828901611733565b95505060206118e088828901611733565b94505060406118f188828901611733565b93505060606119028882890161175d565b925050608086013567ffffffffffffffff811115611923576119226110e0565b5b61192f8882890161187c565b9150509295509295909350565b7f466c6173684d696e74206e6f7420656e61626c656420666f722073657420746f5f8201527f6b656e0000000000000000000000000000000000000000000000000000000000602082015250565b5f6119966023836115c4565b91506119a18261193c565b604082019050919050565b5f6020820190508181035f8301526119c38161198a565b9050919050565b5f815190506119d88161134f565b92915050565b5f602082840312156119f3576119f26110dc565b5b5f611a00848285016119ca565b91505092915050565b5f81519050919050565b5f81905092915050565b8281835e5f83830152505050565b5f611a3582611a09565b611a3f8185611a13565b9350611a4f818560208601611a1d565b80840191505092915050565b5f611a668284611a2b565b915081905092915050565b7f466c6173684d696e742069737375616e6365206661696c6564000000000000005f82015250565b5f611aa56019836115c4565b9150611ab082611a71565b602082019050919050565b5f6020820190508181035f830152611ad281611a99565b9050919050565b7f4e487b71000000000000000000000000000000000000000000000000000000005f52601160045260245ffd5b5f611b1082611346565b9150611b1b83611346565b9250828203905081811115611b3357611b32611ad9565b5b92915050565b611b4281611346565b82525050565b5f604082019050611b5b5f8301856112b0565b611b686020830184611b39565b9392505050565b5f81519050611b7d81611747565b92915050565b5f60208284031215611b9857611b976110dc565b5b5f611ba584828501611b6f565b91505092915050565b7f466c6173684d696e7420726564656d7074696f6e206661696c656400000000005f82015250565b5f611be2601b836115c4565b9150611bed82611bae565b602082019050919050565b5f6020820190508181035f830152611c0f81611bd6565b9050919050565b5f80fd5b5f80fd5b5f80fd5b5f8083356001602003843603038112611c3e57611c3d611c1e565b5b83810192508235915060208301925067ffffffffffffffff821115611c6657611c65611c16565b5b600182023603831315611c7c57611c7b611c1a565b5b509250929050565b5f82825260208201905092915050565b5f611c9f8385611c84565b9350611cac83858461182d565b611cb583611775565b840190509392505050565b5f60408301611cd15f840184611c22565b8583035f870152611ce3838284611c94565b92505050611cf46020840184611c22565b8583036020870152611d07838284611c94565b925050508091505092915050565b5f82825260208201905092915050565b5f611d308385611d15565b9350611d3d83858461182d565b611d4683611775565b840190509392505050565b5f6040820190508181035f830152611d698186611cc0565b90508181036020830152611d7e818486611d25565b9050949350505050565b5f82825260208201905092915050565b5f819050919050565b5f60408301611db25f840184611c22565b8583035f870152611dc4838284611c94565b92505050611dd56020840184611c22565b8583036020870152611de8838284611c94565b925050508091505092915050565b5f611e018383611da1565b905092915050565b5f82356001604003833603038112611e2457611e23611c1e565b5b82810191505092915050565b5f602082019050919050565b5f611e478385611d88565b935083602084028501611e5984611d98565b805f5b87811015611e9c578484038952611e738284611e09565b611e7d8582611df6565b9450611e8883611e30565b925060208a01995050600181019050611e5c565b50829750879450505050509392505050565b5f6040820190508181035f830152611ec7818688611e3c565b90508181036020830152611edc818486611d25565b905095945050505050565b7f415050524f56455f4641494c45440000000000000000000000000000000000005f82015250565b5f611f1b600e836115c4565b9150611f2682611ee7565b602082019050919050565b5f6020820190508181035f830152611f4881611f0f565b905091905056fea264697066735822122068bab66345aff5d228353110da35731881c3625582fc0403f931c3626a38a07564736f6c634300081900330000000000000000000000001bd1aadc9e230626c44a139d7e70d842749351eb00000000000000000000000037e6365d4f6ae378467b0e24c9065ce5f06d70bf",
        "nonce": "0x679",
        "chainId": "0xa4b1"
      },
      "additionalContracts": [],
      "isFixedGasLimit": false
    },
    {
      "hash": "0x65b04eac68bfc5c9571ff24931383e03b8f4c6aa8e800f3933c313df7607de0c",
      "transactionType": "CALL",
      "contractName": "FlashMintExecutor",
      "contractAddress": "0x848f19df5ee44afcb92a519370223b835da2120d",
      "function": "addFlashMintToken(address,address)",
      "arguments": [
        "0x26d7D3728C6bb762a5043a1d0CeF660988Bca43C",
        "0xc6b3B4624941287bB7BdD8255302c1b337e42194"
      ],
      "transaction": {
        "from": "0x37e6365d4f6ae378467b0e24c9065ce5f06d70bf",
        "to": "0x848f19df5ee44afcb92a519370223b835da2120d",
        "gas": "0x733c",
        "value": "0x0",
        "input": "0x2485230e00000000000000000000000026d7d3728c6bb762a5043a1d0cef660988bca43c000000000000000000000000c6b3b4624941287bb7bdd8255302c1b337e42194",
        "nonce": "0x67a",
        "chainId": "0xa4b1"
      },
      "additionalContracts": [],
      "isFixedGasLimit": false
    },
    {
      "hash": "0x3b7f823b834cd39032757d78d8493521e3daf6313f7a03a79599d5fb7ba7b665",
      "transactionType": "CALL",
      "contractName": "FlashMintExecutor",
      "contractAddress": "0x848f19df5ee44afcb92a519370223b835da2120d",
      "function": "addFlashMintToken(address,address)",
      "arguments": [
        "0xA0A17b2a015c14BE846C5d309D076379cCDfa543",
        "0xc6b3B4624941287bB7BdD8255302c1b337e42194"
      ],
      "transaction": {
        "from": "0x37e6365d4f6ae378467b0e24c9065ce5f06d70bf",
        "to": "0x848f19df5ee44afcb92a519370223b835da2120d",
        "gas": "0x733c",
        "value": "0x0",
        "input": "0x2485230e000000000000000000000000a0a17b2a015c14be846c5d309d076379ccdfa543000000000000000000000000c6b3b4624941287bb7bdd8255302c1b337e42194",
        "nonce": "0x67b",
        "chainId": "0xa4b1"
      },
      "additionalContracts": [],
      "isFixedGasLimit": false
    },
    {
      "hash": "0x85522471ba1b07576ab34114cf19e83d398b06490083f7fa9eaac393316ae9e2",
      "transactionType": "CALL",
      "contractName": "FlashMintExecutor",
      "contractAddress": "0x848f19df5ee44afcb92a519370223b835da2120d",
      "function": "addFlashMintToken(address,address)",
      "arguments": [
        "0x749654601a286833aD30357246400D2933b1C89b",
        "0xc6b3B4624941287bB7BdD8255302c1b337e42194"
      ],
      "transaction": {
        "from": "0x37e6365d4f6ae378467b0e24c9065ce5f06d70bf",
        "to": "0x848f19df5ee44afcb92a519370223b835da2120d",
        "gas": "0x733f",
        "value": "0x0",
        "input": "0x2485230e000000000000000000000000749654601a286833ad30357246400d2933b1c89b000000000000000000000000c6b3b4624941287bb7bdd8255302c1b337e42194",
        "nonce": "0x67c",
        "chainId": "0xa4b1"
      },
      "additionalContracts": [],
      "isFixedGasLimit": false
    },
    {
      "hash": "0x58e0e683346990c730d6e2675e9994c06b14d035bc36e6cea74f03c6ea2f36ea",
      "transactionType": "CALL",
      "contractName": "FlashMintExecutor",
      "contractAddress": "0x848f19df5ee44afcb92a519370223b835da2120d",
      "function": "addFlashMintToken(address,address)",
      "arguments": [
        "0xeb5bE62e6770137beaA0cC712741165C594F59D7",
        "0xc6b3B4624941287bB7BdD8255302c1b337e42194"
      ],
      "transaction": {
        "from": "0x37e6365d4f6ae378467b0e24c9065ce5f06d70bf",
        "to": "0x848f19df5ee44afcb92a519370223b835da2120d",
        "gas": "0x733f",
        "value": "0x0",
        "input": "0x2485230e000000000000000000000000eb5be62e6770137beaa0cc712741165c594f59d7000000000000000000000000c6b3b4624941287bb7bdd8255302c1b337e42194",
        "nonce": "0x67d",
        "chainId": "0xa4b1"
      },
      "additionalContracts": [],
      "isFixedGasLimit": false
    },
    {
      "hash": "0xcabfbe61f72db7f8de9eab8f49d170d696785eef6c47fe8e80c6c8491ec935ce",
      "transactionType": "CALL",
      "contractName": "FlashMintExecutor",
      "contractAddress": "0x848f19df5ee44afcb92a519370223b835da2120d",
      "function": "addFlashMintToken(address,address)",
      "arguments": [
        "0x3bDd0d5c0C795b2Bf076F5C8F177c58e42beC0E6",
        "0xc6b3B4624941287bB7BdD8255302c1b337e42194"
      ],
      "transaction": {
        "from": "0x37e6365d4f6ae378467b0e24c9065ce5f06d70bf",
        "to": "0x848f19df5ee44afcb92a519370223b835da2120d",
        "gas": "0x7340",
        "value": "0x0",
        "input": "0x2485230e0000000000000000000000003bdd0d5c0c795b2bf076f5c8f177c58e42bec0e6000000000000000000000000c6b3b4624941287bb7bdd8255302c1b337e42194",
        "nonce": "0x67e",
        "chainId": "0xa4b1"
      },
      "additionalContracts": [],
      "isFixedGasLimit": false
    },
    {
      "hash": "0x5a4a2188a426c46ce59820f337c15618323afd325bc0ac17e42a4340c5c7ef31",
      "transactionType": "CALL",
      "contractName": "FlashMintExecutor",
      "contractAddress": "0x848f19df5ee44afcb92a519370223b835da2120d",
      "function": "addFlashMintToken(address,address)",
      "arguments": [
        "0x80e58AEA88BCCaAE19bCa7f0e420C1387Cc087fC",
        "0xc6b3B4624941287bB7BdD8255302c1b337e42194"
      ],
      "transaction": {
        "from": "0x37e6365d4f6ae378467b0e24c9065ce5f06d70bf",
        "to": "0x848f19df5ee44afcb92a519370223b835da2120d",
        "gas": "0x7344",
        "value": "0x0",
        "input": "0x2485230e00000000000000000000000080e58aea88bccaae19bca7f0e420c1387cc087fc000000000000000000000000c6b3b4624941287bb7bdd8255302c1b337e42194",
        "nonce": "0x67f",
        "chainId": "0xa4b1"
      },
      "additionalContracts": [],
      "isFixedGasLimit": false
    }
  ],
  "receipts": [
    {
      "status": "0x1",
      "cumulativeGasUsed": "0x289864",
      "logs": [
        {
          "address": "0x848f19df5ee44afcb92a519370223b835da2120d",
          "topics": [
            "0x8be0079c531659141344cd1fd0a4f28419497f9722a3daafe3b4186f6b6457e0",
            "0x0000000000000000000000000000000000000000000000000000000000000000",
            "0x00000000000000000000000037e6365d4f6ae378467b0e24c9065ce5f06d70bf"
          ],
          "data": "0x",
          "blockHash": "0x45fedf9ea22579c23915edae6a131463607466a394eacb0cb9e7ffc01a1288ec",
          "blockNumber": "0x127542f3",
          "transactionHash": "0x7eee3514e2a07a2bdea69fb962dfd87eded1d771bf7c58c8f664f849b4bc2f3a",
          "transactionIndex": "0x8",
          "logIndex": "0x12",
          "removed": false
        }
      ],
      "logsBloom": "0x0000000000000000000000000000000000000000000000000080000000000000000000000000000000000000000000000000000000000000000000001000000000000000000000000000000000000000000100000000000000000000000000000000000002000000000000000000080000000000000000000000000000000040000000000000000000000000000000000200000000000000000000000000000000000000000000000000000000000000800000000000000000000000000000000000000000000000000000000000000000000000000000000000000000002000000000000001000000000c000000000000000000000000000000000000000000",
      "type": "0x2",
      "transactionHash": "0x7eee3514e2a07a2bdea69fb962dfd87eded1d771bf7c58c8f664f849b4bc2f3a",
      "transactionIndex": "0x8",
      "blockHash": "0x45fedf9ea22579c23915edae6a131463607466a394eacb0cb9e7ffc01a1288ec",
      "blockNumber": "0x127542f3",
      "gasUsed": "0x1bef8b",
      "effectiveGasPrice": "0x40bb6d28",
      "from": "0x37e6365d4f6ae378467b0e24c9065ce5f06d70bf",
      "to": null,
      "contractAddress": "0x848f19df5ee44afcb92a519370223b835da2120d",
      "gasUsedForL1": "0x1db0",
      "l1BlockNumber": "0x14e8005"
    },
    {
      "status": "0x1",
      "cumulativeGasUsed": "0x8717a",
      "logs": [
        {
          "address": "0x848f19df5ee44afcb92a519370223b835da2120d",
          "topics": [
            "0x2031fcbff568a98faa2b2e25a63a696590b0a898afb1e499076752eddfe47a1f",
            "0x00000000000000000000000026d7d3728c6bb762a5043a1d0cef660988bca43c",
            "0x000000000000000000000000c6b3b4624941287bb7bdd8255302c1b337e42194"
          ],
          "data": "0x",
          "blockHash": "0x5a96393de24fa3fdb94edb2777397a9c15e2eb02cf27c4c208c5b1b9b639c3f7",
          "blockNumber": "0x127542fe",
          "transactionHash": "0x65b04eac68bfc5c9571ff24931383e03b8f4c6aa8e800f3933c313df7607de0c",
          "transactionIndex": "0x3",
          "logIndex": "0xf",
          "removed": false
        }
      ],
      "logsBloom": "0x0000000000000000000000000000000000000000000000000000000000000000000000000000000000000000000000000000000000000000000000000000000000000000000080000010000000008000000000000000000000000000000000000000000000000000000000000000000000000000000000000000000000000000000000000000000000000200000000000000000010000000000000000000020000020000000000000000000000000000808000000000000000000000000000000000000000000002000000000000000000000000000000000000000000000000000000000000000000000c000000000000000000000000000000000000000000",
      "type": "0x2",
      "transactionHash": "0x65b04eac68bfc5c9571ff24931383e03b8f4c6aa8e800f3933c313df7607de0c",
      "transactionIndex": "0x3",
      "blockHash": "0x5a96393de24fa3fdb94edb2777397a9c15e2eb02cf27c4c208c5b1b9b639c3f7",
      "blockNumber": "0x127542fe",
      "gasUsed": "0xbf53",
      "effectiveGasPrice": "0x405fb4b0",
      "from": "0x37e6365d4f6ae378467b0e24c9065ce5f06d70bf",
      "to": "0x848f19df5ee44afcb92a519370223b835da2120d",
      "contractAddress": null,
      "gasUsedForL1": "0x185",
      "l1BlockNumber": "0x14e8005"
    },
    {
      "status": "0x1",
      "cumulativeGasUsed": "0x3c15e",
      "logs": [
        {
          "address": "0x848f19df5ee44afcb92a519370223b835da2120d",
          "topics": [
            "0x2031fcbff568a98faa2b2e25a63a696590b0a898afb1e499076752eddfe47a1f",
            "0x000000000000000000000000a0a17b2a015c14be846c5d309d076379ccdfa543",
            "0x000000000000000000000000c6b3b4624941287bb7bdd8255302c1b337e42194"
          ],
          "data": "0x",
          "blockHash": "0x9ecc2826e534a1108c1b3ba4ba97d0a76e46ffb1214f19877d94823d2199b2af",
          "blockNumber": "0x1275430d",
          "transactionHash": "0x3b7f823b834cd39032757d78d8493521e3daf6313f7a03a79599d5fb7ba7b665",
          "transactionIndex": "0x4",
          "logIndex": "0x5",
          "removed": false
        }
      ],
      "logsBloom": "0x0000000000000000000000000000000000000000000000000000000000000000000000000000000000400000000000000000000000000000000000000000000000000000000000000010000000000000000000000000000000000000400000000000000000000000000000000000000000000000000000100000000000000000000000000000000000000200000000000000000010000000000000000000020000020000000000000000000000000000800000000000000000000000000000000000000000000002000000000000000000000000000000000000000000000000000000000000000000000c000000000000000000000000000000000000000000",
      "type": "0x2",
      "transactionHash": "0x3b7f823b834cd39032757d78d8493521e3daf6313f7a03a79599d5fb7ba7b665",
      "transactionIndex": "0x4",
      "blockHash": "0x9ecc2826e534a1108c1b3ba4ba97d0a76e46ffb1214f19877d94823d2199b2af",
      "blockNumber": "0x1275430d",
      "gasUsed": "0xbf5a",
      "effectiveGasPrice": "0x3f57f910",
      "from": "0x37e6365d4f6ae378467b0e24c9065ce5f06d70bf",
      "to": "0x848f19df5ee44afcb92a519370223b835da2120d",
      "contractAddress": null,
      "gasUsedForL1": "0x18c",
      "l1BlockNumber": "0x14e8005"
    },
    {
      "status": "0x1",
      "cumulativeGasUsed": "0xbf60",
      "logs": [
        {
          "address": "0x848f19df5ee44afcb92a519370223b835da2120d",
          "topics": [
            "0x2031fcbff568a98faa2b2e25a63a696590b0a898afb1e499076752eddfe47a1f",
            "0x000000000000000000000000749654601a286833ad30357246400d2933b1c89b",
            "0x000000000000000000000000c6b3b4624941287bb7bdd8255302c1b337e42194"
          ],
          "data": "0x",
          "blockHash": "0xef9f809703643918327b073e9e3a6c2b0e6568bc33ca6071280c4bf1d982c52c",
          "blockNumber": "0x1275431e",
          "transactionHash": "0x85522471ba1b07576ab34114cf19e83d398b06490083f7fa9eaac393316ae9e2",
          "transactionIndex": "0x1",
          "logIndex": "0x0",
          "removed": false
        }
      ],
      "logsBloom": "0x0000000000000000000000000000000000000000000000000000000000000000000000000000000000000000000000000000000000000040000000000000000000000000000000000010000000000000000000000000000000000000000000000008000000000000000000000000000000000000000000000000000000000000000000000000000000000200000000000000000010000000000000000000020000020000000000000000000000000000800000000000000000000000000000000000000000000002000000000000000000000000000000000000000000000000000000100000000000000c000000000000000000000000000000000000000000",
      "type": "0x2",
      "transactionHash": "0x85522471ba1b07576ab34114cf19e83d398b06490083f7fa9eaac393316ae9e2",
      "transactionIndex": "0x1",
      "blockHash": "0xef9f809703643918327b073e9e3a6c2b0e6568bc33ca6071280c4bf1d982c52c",
      "blockNumber": "0x1275431e",
      "gasUsed": "0xbf60",
      "effectiveGasPrice": "0x3e5f77e0",
      "from": "0x37e6365d4f6ae378467b0e24c9065ce5f06d70bf",
      "to": "0x848f19df5ee44afcb92a519370223b835da2120d",
      "contractAddress": null,
      "gasUsedForL1": "0x192",
      "l1BlockNumber": "0x14e8006"
    },
    {
      "status": "0x1",
      "cumulativeGasUsed": "0x5b0cf",
      "logs": [
        {
          "address": "0x848f19df5ee44afcb92a519370223b835da2120d",
          "topics": [
            "0x2031fcbff568a98faa2b2e25a63a696590b0a898afb1e499076752eddfe47a1f",
            "0x000000000000000000000000eb5be62e6770137beaa0cc712741165c594f59d7",
            "0x000000000000000000000000c6b3b4624941287bb7bdd8255302c1b337e42194"
          ],
          "data": "0x",
          "blockHash": "0x34fc7d9e0d689ea49d1cc02a8febdaf607cd03501d3f8c546867c5caa4813e09",
          "blockNumber": "0x1275432e",
          "transactionHash": "0x58e0e683346990c730d6e2675e9994c06b14d035bc36e6cea74f03c6ea2f36ea",
          "transactionIndex": "0x4",
          "logIndex": "0x5",
          "removed": false
        }
      ],
      "logsBloom": "0x0000000000000000000000000000000000000000000000000000000000000000000000000000000000000000000000000000000000000000000000000000000000000008000000000010000000000000000000000000000000000000000000000000000000000000000000000000000000000000000000000000000000000000000000000000000000400200000000000000000010000000000000000000020000020000000000000000000000000000800000000000000002000000000000000000000000000002000000000000000000000000000000000000000000000000000000000000000000000c000000000000000000000000000000000000000000",
      "type": "0x2",
      "transactionHash": "0x58e0e683346990c730d6e2675e9994c06b14d035bc36e6cea74f03c6ea2f36ea",
      "transactionIndex": "0x4",
      "blockHash": "0x34fc7d9e0d689ea49d1cc02a8febdaf607cd03501d3f8c546867c5caa4813e09",
      "blockNumber": "0x1275432e",
      "gasUsed": "0xbf66",
      "effectiveGasPrice": "0x3d7e4f40",
      "from": "0x37e6365d4f6ae378467b0e24c9065ce5f06d70bf",
      "to": "0x848f19df5ee44afcb92a519370223b835da2120d",
      "contractAddress": null,
      "gasUsedForL1": "0x198",
      "l1BlockNumber": "0x14e8006"
    },
    {
      "status": "0x1",
      "cumulativeGasUsed": "0x96ffc",
      "logs": [
        {
          "address": "0x848f19df5ee44afcb92a519370223b835da2120d",
          "topics": [
            "0x2031fcbff568a98faa2b2e25a63a696590b0a898afb1e499076752eddfe47a1f",
            "0x0000000000000000000000003bdd0d5c0c795b2bf076f5c8f177c58e42bec0e6",
            "0x000000000000000000000000c6b3b4624941287bb7bdd8255302c1b337e42194"
          ],
          "data": "0x",
          "blockHash": "0x8b27a2f68f21f4fcea066c601cb278611be102dc1a431419ff0c58bc8db90298",
          "blockNumber": "0x1275433d",
          "transactionHash": "0xcabfbe61f72db7f8de9eab8f49d170d696785eef6c47fe8e80c6c8491ec935ce",
          "transactionIndex": "0x5",
          "logIndex": "0xe",
          "removed": false
        }
      ],
      "logsBloom": "0x0000100000000000000000000000000000000000000000000000000000000000000000000000000000000000000000000000000000000000000000000000000000000000000000000010000000000000000000000000000000000000000000000000000000000000000000000000000000000000000000000000000000000000000000000000000000000200000000000001000010000000000000000000020000020000000000000000000000000000800000000000000000000000000000000000000002000002000000000000000000000000000000000000000000000000000000000000000000000c000000000000000000000000000000000000000000",
      "type": "0x2",
      "transactionHash": "0xcabfbe61f72db7f8de9eab8f49d170d696785eef6c47fe8e80c6c8491ec935ce",
      "transactionIndex": "0x5",
      "blockHash": "0x8b27a2f68f21f4fcea066c601cb278611be102dc1a431419ff0c58bc8db90298",
      "blockNumber": "0x1275433d",
      "gasUsed": "0xbf6c",
      "effectiveGasPrice": "0x3c8e0788",
      "from": "0x37e6365d4f6ae378467b0e24c9065ce5f06d70bf",
      "to": "0x848f19df5ee44afcb92a519370223b835da2120d",
      "contractAddress": null,
      "gasUsedForL1": "0x19e",
      "l1BlockNumber": "0x14e8006"
    },
    {
      "status": "0x1",
      "cumulativeGasUsed": "0x23578",
      "logs": [
        {
          "address": "0x848f19df5ee44afcb92a519370223b835da2120d",
          "topics": [
            "0x2031fcbff568a98faa2b2e25a63a696590b0a898afb1e499076752eddfe47a1f",
            "0x00000000000000000000000080e58aea88bccaae19bca7f0e420c1387cc087fc",
            "0x000000000000000000000000c6b3b4624941287bb7bdd8255302c1b337e42194"
          ],
          "data": "0x",
          "blockHash": "0x29d7aa8407161344431147961b3123b99104893cd1293bb224f108be569ac3f5",
          "blockNumber": "0x1275434e",
          "transactionHash": "0x5a4a2188a426c46ce59820f337c15618323afd325bc0ac17e42a4340c5c7ef31",
          "transactionIndex": "0x2",
          "logIndex": "0x2",
          "removed": false
        }
      ],
      "logsBloom": "0x0000000000080000000000000000000000000000000000000000000000000000000000000000000000000000000000000000000000000000000000000000000000000200000000000010000000000000000000000000000000000000000000000000000000000000000000000000000000000000000000000000000000000000000000000000000000000200000000000000000010000000000000000000020000020000000000000000000000000000800000000000000000000000000000000000000000000002000000000000000000000000000000000000000000000000000000000000000000000c000000000200000000000000000000000000000000",
      "type": "0x2",
      "transactionHash": "0x5a4a2188a426c46ce59820f337c15618323afd325bc0ac17e42a4340c5c7ef31",
      "transactionIndex": "0x2",
      "blockHash": "0x29d7aa8407161344431147961b3123b99104893cd1293bb224f108be569ac3f5",
      "blockNumber": "0x1275434e",
      "gasUsed": "0xbf70",
      "effectiveGasPrice": "0x3bf51730",
      "from": "0x37e6365d4f6ae378467b0e24c9065ce5f06d70bf",
      "to": "0x848f19df5ee44afcb92a519370223b835da2120d",
      "contractAddress": null,
      "gasUsedForL1": "0x1a2",
      "l1BlockNumber": "0x14e8006"
    }
  ],
  "libraries": [],
  "pending": [],
  "returns": {},
  "timestamp": 1740467902,
  "chain": 42161,
  "commit": "d9b6e16"
}